S0120000535049204D61737465722E737265639A
S11300000C9434000C9449000C9449000C9449005D
S11300100C9449000C9449000C9449000C94490038
S11300200C9449000C9449000C9449000C94490028
S11300300C9449000C9449000C9449000C94490018
S11300400C9449000C9449000C9449000C94490008
S11300500C9449000C9449000C9449000C944900F8
S11300600C9449000C94490011241FBECFEFD8E032
S1130070DEBFCDBF12E0A0E0B1E0E6EEF0E002C0EA
S113008005900D92A63DB107D9F70E946A000C9421
S113009071000C9400008EBD0DB407FEFDCF0895D1
S11300A0CF93DF93EC018881882361F021960E942D
S11300B04B0083ED90E30197F1F700C000008991B4
S11300C08111F5CFDF91CF9108958CE284B980E559
S11300D08CBD08950E94650080E091E00E9450006C
S10900E0FFCFF894FFCFEE
S11300E648697275746872617061746879456E6185
S11300F6626C65205350492C204D61737465722CD3
S11301062073657420636C6F636B20726174652061
S113011666636B2F3136202A2F4C65747465722002
S11301267365726965732069732061206C6F6769F2
S113013663616C20617272616E67656D656E7420B1
S11301466F66206C657474657273206F6620456EE5
S1130156676C69736820616C70686162657420619C
S11301667272616E67656420696E206120737065C2
S1130176636966696564207061747465726E2E20A5
S1130186496E20746869732C2061207365726965F1
S113019673206F66206C6574746572732C206772A5
S11301A66F757073206F66206C6574746572732046
S11301B66F7220636F6D62696E6174696F6E206F12
S11301C666206C65747465727320616E64206E7546
S11301D66D6265727320697320676976656E2E2079
S11301E6456163682067726F7570206F722073694A
S11301F66E676C6520656C656D656E742069732029
S113020663616C6C6564207465726D2E2054686538
S1130216207465726D73206F66207468652073653B
S11302267269657320666F726D20612063657274EE
S113023661696E207061747465726E2E20536F202E
S11302466669727374207265717569726564207467
S11302566F206964656E74696679207468697320B1
S11302667061747465726E20616E642066696E6472
S113027620746865206D697373696E67207465728E
S11302866D20696E2074686520676976656E2073D3
S113029665726965732077686963682077696C6C31
S11302A6207361746973667920746865207061745B
S10902B67465726E2E0057
S9030000FC
