S019000047616D65206F6E20427574746F6E7320322E7372656333
S11300000C9434000C9446000C9446000C94460066
S11300100C9446000C9446000C9446000C94460044
S11300200C9446000C9446000C9446000C94460034
S11300300C9446000C9446000C9446000C94460024
S11300400C9446000C9446000C9446000C94460014
S11300500C9446000C9446000C9446000C94460004
S11300600C9446000C94460011241FBECFEFD8E038
S1130070DEBFCDBF21E0A0E0B1E001C01D92A430FD
S1130080B207E1F70E94D0000C94E8000C94000041
S11300908091020190910301019690930301809352
S11300A002018230910561F01CF4019739F0089542
S11300B08330910539F0049739F00895289A08950A
S11300C0299A08952A9A089584E090E0289A299A12
S11300D02A9A2FE332E44FE0215030404040E1F7C8
S11300E000C00000289829982A982FE332E44FE0B2
S11300F0215030404040E1F700C00000109203015D
S11301001092020110920101109200010197F1F680
S11301105B985C985D98089580910001909101012D
S1130120019690930101809300018230910561F062
S11301301CF4019739F008958330910539F0049740
S113014039F008955B9A08955C9A08955D9A08952C
S113015084E090E05B9A5C9A5D9A2FE332E44FE08E
S1130160215030404040E1F700C000005B985C98AB
S11301705D982FE332E44FE0215030404040E1F7F6
S113018000C00000109203011092020110920101BC
S1130190109200010197F1F6289829982A98089559
S11301A08FEE84B92C9A8FE78AB95F9A83B18295CE
S11301B08F7039F483B182958F708130D9F70E94A2
S11301C048004F99F3CF4F9BFECF0E948C00EECF97
S10701D0F894FFCFCD
S9030000FC
