:100000000C9434000C9449000C9449000C94490061
:100010000C9449000C9449000C9449000C9449003C
:100020000C9449000C9449000C9449000C9449002C
:100030000C9449000C9449000C9449000C9449001C
:100040000C9449000C9449000C9449000C9449000C
:100050000C9449000C9449000C9449000C944900FC
:100060000C9449000C94490011241FBECFEFD8E036
:10007000DEBFCDBF11E0A0E0B1E0ECE9F3E002C0EB
:1000800005900D92AC30B107D9F70E946F010C9426
:10009000CC010C9400002A9A83EF91E00197F1F7CC
:1000A00000C000002A9883EF91E00197F1F700C0AB
:1000B000000008951AB82898299A81E28A95F1F7E4
:1000C00000002F9B04C00E944B002F99FCCF8FEFA4
:1000D0008AB90895CF93C82F0E945A00CBB92898A7
:1000E000299881E28A95F1F700000E944B00C295A1
:1000F000C07FCBB90E944B00CF910895CF93C82FFA
:100100000E945A00CBB9289A299881E28A95F1F782
:1001100000000E944B00C295C07FCBB90E944B00EB
:10012000CF910895CF93DF93EC018881882351F01C
:1001300021960E947E0080E18A95F1F700C08991A6
:100140008111F7CFDF91CF910895EF92FF920F9336
:100150001F93CF93DF93CDB7DEB72A970FB6F894EE
:10016000DEBF0FBECDBF0097D9F19E012F5F3F4F7D
:100170008901E0E0F0E00F2EFAE0EF2EF12CF02DF7
:1001800001C0FA01B7010E94A401805DD8018D93DE
:100190008D01862F972FAF014F5F5F4F009789F733
:1001A000DE01A40FB51F11961C921E161F069CF4AB
:1001B000BF01EC0FFD1F329680E090E0D9014C9119
:1001C00052915D939D0140830196AB01481B590BF1
:1001D000841795079CF3CE0101960E94920002C0FD
:1001E0001982F9CF2A960FB6F894DEBF0FBECDBFA5
:1001F000DF91CF911F910F91FF90EF9008950F9392
:100200001F93CF93DF93EC018B0182E00E946A0081
:1002100083ED90E30197F1F700C00000209769F5A6
:100220001016110664F5C1E0D0E084E10E946A0076
:1002300091E29A95F1F7000021960C171D07ACF793
:100240001EC0C8E2D0E084E10E946A0081E28A9583
:10025000F1F700002197B9F71016110684F4C1E0F8
:10026000D0E084E10E946A0091E29A95F1F70000E3
:1002700021960C171D07ACF702C0219711F3DF91EF
:10028000CF911F910F91089584B1876084B987EA57
:1002900091E60197F1F700C0000081E00E946A003A
:1002A00083ED90E30197F1F700C0000088E20E941F
:1002B0006A0091E29A95F1F700008CE00E946A00D2
:1002C00081E28A95F1F70000089581E00E946A00BA
:1002D00083ED90E30197F1F700C0000008950E94BC
:1002E00044010E94650180E091E00E94920060E07C
:1002F00070E081E090E00E94FF0085E090E00E94C5
:10030000A5002FE382E49FE0215080409040E1F778
:1003100000C000000E94650180E091E00E94920010
:1003200060E070E081E090E00E94FF008AE090E0F1
:100330000E94A5002FE382E49FE02150804090407E
:10034000E1F700C00000CDCF97FB072E16F4009414
:1003500007D077FD09D00E94B80107FC05D03EF414
:10036000909581959F4F0895709561957F4F089561
:10037000AA1BBB1B51E107C0AA1FBB1FA617B707CB
:1003800010F0A61BB70B881F991F5A95A9F78095E7
:0C0390009095BC01CD010895F894FFCFBA
:0C039C00527574687261706174687900B9
:00000001FF
