S01B000047656E6572616C205472616E736D69747465722E737265638E
S11300000C9434000C9451000C9451000C94510045
S11300100C9451000C9451000C9451000C94510018
S11300200C9451000C9451000C9451000C94510008
S11300300C9451000C9451000C9451000C945100F8
S11300400C9451000C9451000C9451000C945100E8
S11300500C9451000C9451000C9451000C945100D8
S11300600C9451000C94510011241FBECFEFD8E022
S1130070DEBFCDBF11E0A0E0B1E0ECE8F1E002C0EA
S113008005900D92A23AB107D9F721E0A2EAB1E0B6
S113009001C01D92A33AB207E1F70E94BD000C947F
S11300A0C4000C9400005F9A08955F980895CF935C
S11300B0DF931092A2011092A2019091A2019830B4
S11300C028F5C82FD0E08091A2019E0102C0359589
S11300D027958A95E2F720FF02C05E9A0AC08091B4
S11300E0A2019E0102C0359527958A95E2F720FF6B
S11300F05E980E9453000E9455008091A2018F5F78
S11301008093A2018091A2018830E8F23FE986E859
S113011091E0315080409040E1F700C00000DF9151
S1130120CF9108950F931F93CF93DF9300D0CDB752
S1130130DEB78C011A821982E981FA81E80FF91F6E
S11301408081882399F0E981FA81E00FF11F808191
S11301500E94570089819A8101969A838983E98153
S1130160FA81E00FF11F80818111EDCF0F900F9084
S1130170DF91CF911F910F910895579A569A80E07D
S10F018091E00E949200FFCFF894FFCFA2
S113018C4E6F206D617474657220686F7720737480
S113019C756E6E696E6720796F757220626F6F6B06
S11301AC20636F7665722069732C206F7220686FE0
S11301BC7720616D617A696E672074686520737449
S11301CC6F72792C2063686F6F73696E6720746823
S11301DC6520726967687420666F6E7420666F722E
S11301EC20796F757220626F6F6B2063616E206D66
S11301FC616B65206120626967206469666665725B
S113020C656E6365207768656E20796F75207075EF
S113021C626C69736820796F757220626F6F6B2ED4
S105022C0000CC
S9030000FC
