:100000000C9434000C943E000C943E000C943E0082
:100010000C943E000C943E000C943E000C943E0068
:100020000C943E000C943E000C943E000C943E0058
:100030000C943E000C943E000C943E000C943E0048
:100040000C943E000C943E000C943E000C943E0038
:100050000C943E000C9472010C943E000C943E00F3
:100060000C943E000C943E0011241FBECFEFD8E04C
:10007000DEBFCDBF0E944E010C94DB010C9400004A
:100080002A9A81E28A95F1F700002A9889EF90E098
:100090000197F1F700C0000008951AB82898299A2E
:1000A00081E28A95F1F700002F9B04C00E94400076
:1000B0002F99FCCF8FEF8AB90895CF93C82F0E9454
:1000C0004D00CBB92898299881E28A95F1F7000074
:1000D0000E944000CF910895CF93C82F0E944D00F9
:1000E000CBB9289A299881E28A95F1F700000E94FD
:1000F0004000CF910895CF93DF93EC01888188234E
:1001000051F021960E946C0080E18A95F1F700C0C1
:1001100089918111F7CFDF91CF910895EF92FF92EE
:100120000F931F93CF93DF93CDB7DEB72A970FB608
:10013000F894DEBF0FBECDBF0097D9F19E012F5FAF
:100140003F4F8901E0E0F0E00F2EFAE0EF2EF12CB6
:10015000F02D01C0FA01B7010E94B301805DD80102
:100160008D938D01862F972FAF014F5F5F4F0097C3
:1001700089F7DE01A40FB51F11961C921E161F06EB
:100180009CF4BF01EC0FFD1F329680E090E0D90196
:100190004C9152915D939D0140830196AB01481BA8
:1001A000590B841795079CF3CE0101960E947B00A2
:1001B00002C01982F9CF2A960FB6F894DEBF0FBE9F
:1001C000CDBFDF91CF911F910F91FF90EF900895D8
:1001D0000F931F93CF93DF93EC018B0182E00E947A
:1001E0005D0083ED90E30197F1F700C000002097D8
:1001F00069F51016110664F5C1E0D0E084E10E94B3
:100200005D0091E29A95F1F7000021960C171D0709
:10021000ACF71EC0C8E2D0E084E10E945D0081E23C
:100220008A95F1F700002197B9F71016110684F4AA
:10023000C1E0D0E084E10E945D0091E29A95F1F77F
:10024000000021960C171D07ACF702C0219711F38F
:10025000DF91CF911F910F91089584B1876084B988
:1002600087EA91E60197F1F700C0000081E00E9463
:100270005D0083ED90E30197F1F700C0000088E393
:100280000E945D0091E29A95F1F700008CE00E94D7
:100290005D0081E28A95F1F7000008950E942D012A
:1002A000E4E6F0E080818E7F8083EAE7F0E0808101
:1002B000846080838081886080838081806880837F
:1002C000ECE7F0E080818F77808380818064808399
:1002D0008081807F80837894EAE7F0E08081806489
:1002E0008083FCCF1F920F920FB60F9211242F9391
:1002F0003F934F935F936F937F938F939F93AF93AE
:10030000BF93CF93DF93EF93FF93C09178008091D9
:100310007900D0E0D82B60E070E080E090E00E94AF
:10032000E800CE010E948E0080E20E946C002FE364
:100330008DE093E0215080409040E1F700C0000044
:10034000FF91EF91DF91CF91BF91AF919F918F91ED
:100350007F916F915F914F913F912F910F900FBEC1
:100360000F901F90189597FB072E16F4009407D056
:1003700077FD09D00E94C70107FC05D03EF4909597
:1003800081959F4F0895709561957F4F0895AA1BA1
:10039000BB1B51E107C0AA1FBB1FA617B70710F070
:1003A000A61BB70B881F991F5A95A9F780959095A2
:0A03B000BC01CD010895F894FFCFC1
:00000001FF
