S01A0000496E746572666163652077697468205254432E7372656394
S11300000C9434000C9451000C9451000C94510045
S11300100C9451000C9451000C9451000C94510018
S11300200C9451000C9451000C9451000C94510008
S11300300C9451000C9451000C9451000C945100F8
S11300400C9451000C9451000C9451000C945100E8
S11300500C9451000C9451000C9451000C945100D8
S11300600C9451000C94510011241FBECFEFD8E022
S1130070DEBFCDBF11E0A0E0B1E0ECE4F4E002C0EB
S113008005900D92A438B107D9F721E0A4E8B1E0B6
S113009001C01D92A538B207E1F70E94D1010C946A
S11300A024020C9400009C01E4E6F0E080818D7F42
S11300B08083032E000C440B550B60E271EA87E049
S11300C090E00E94E301DA01C9010197A109B10995
S11300D0892F9A2FAB2FBB27A7FDBA958093C50014
S11300E021502093C400E1ECF0E08081886180839A
S11300F00895E0ECF0E0908195FFFDCF8093C60079
S11301000895CF93DF93EC018881882331F0219601
S11301100E94790089918111FBCFDF91CF910895DD
S11301208093BB0084E88093BC00ECEBF0E080811A
S11301308823ECF78091B900887F883221F083E42A
S113014091E00E9481000895CF93C82F84EA8093A0
S1130150BC00ECEBF0E080818823ECF78091B900DF
S1130160887F883021F080E091E00E948100C09374
S1130170BB0084E88093BC00ECEBF0E08081882332
S1130180ECF78091B900887F883121F080E291E01A
S11301900E948100CF910895CF93C82F84EA809361
S11301A0BC00ECEBF0E080818823ECF78091B9008F
S11301B0887F803121F080E091E00E948100C0932B
S11301C0BB0084E88093BC00ECEBF0E080818823E2
S11301D0ECF78091B900887F803421F080E291E0CF
S11301E00E948100CF91089580ED0E94A40080E0D8
S11301F00E94900080E00E9490008FE30E94900093
S11302008FE00E94900087E00E94900083E30E94A8
S113021090008FE10E9490008FEF0E94900084E98B
S11302208093BC0008957F928F929F92AF92BF9269
S1130230CF92DF92EF92FF920F931F93CF93DF93AE
S11302400F2EF6E0EF2EF12CF02D0CEB10E00F2E1C
S1130250F4EC7F2EF02D0F2EF9EBAF2EB12CF02DF8
S11302600F2EFBEBCF2ED12CF02D88248394912CD0
S1130270F8017082F80180818823E4F7F501808118
S1130280887F803521F085E691E00E948100F601A7
S1130290808180938401C0E0D0E08091840190E06B
S11302A094010C2E02C0220F331F0A94E2F782231A
S11302B093230C2E02C0959587950A94E2F781301A
S11302C0910521F481E30E94790005C0892B19F47A
S11302D080E30E9479002196C830D105F1F610928E
S11302E084018AE00E94790021E0E21AF10809F011
S11302F0BFCFECEBF0E080818F7B808380818468CA
S113030080838091BB0080938401C0E0D0E001E051
S113031010E080918401282F30E0C8010C2E02C027
S1130320880F991F0A94E2F7822393230C2E02C0AC
S1130330959587950A94E2F78130910521F481E33C
S11303400E94790005C0892B19F480E30E9479008A
S11303502196C830D105E9F6109284018AE00E9402
S113036079008AE00E947900DF91CF911F910F916B
S1130370FF90EF90DF90CF90BF90AF909F908F90C1
S11303807F90089580ED0E94A40080E00E94900078
S113039081ED0E94CC000E94130184E98093BC008B
S11303A0089580E895E20E9453000E94F4000E94A0
S11303B0C2012FEF81E19AE7215080409040E1F79C
S11303C000C00000F4CF052E97FB1EF400940E9499
S11303D0FA0157FD07D00E94020207FC03D04EF435
S11303E00C94FA0150954095309521953F4F4F4F0D
S11303F05F4F089590958095709561957F4F8F4FCD
S11304009F4F0895A1E21A2EAA1BBB1BFD010DC02C
S1130410AA1FBB1FEE1FFF1FA217B307E407F507B0
S113042020F0A21BB30BE40BF50B661F771F881F8C
S1130430991F1A9469F760957095809590959B0122
S10F0440AC01BD01CF010895F894FFCF7A
S113044C537461727420636F6E646974696F6E2087
S113045C6E6F7420696E697469616C697A65640085
S113046C536C6176652041636B6E6F776C65646762
S113047C656D656E74206E6F742072656365697644
S113048C656400446174612041636B6E6F776C65C5
S113049C6467656D656E74206E6F74207265636538
S11304AC6976656400446174612061636B6E6F7777
S11304BC6E6C776467656D656E74206E6F742073F3
S10704CC656E7400E1
S9030000FC
