:100000000C9434000C943E000C943E000C943E0082
:100010000C943E000C943E000C943E000C943E0068
:100020000C943E000C943E000C943E000C943E0058
:100030000C943E000C943E000C943E000C943E0048
:100040000C943E000C943E000C943E000C943E0038
:100050000C943E000C943E000C943E000C943E0028
:100060000C943E000C943E0011241FBECFEFD8E04C
:10007000DEBFCDBF0E9475000C94C0000C94000040
:100080009C01E4E6F0E080818D7F8083032E000CEC
:10009000440B550B60E271EA87E090E00E947F001C
:1000A000DA01C9010197A109B109892F9A2FAB2F54
:1000B000BB27A7FDBA958093C50021502093C400AB
:1000C000E1ECF0E08081886180830895E0ECF0E06D
:1000D000908195FFFDCF8093C6000895F999FECFDA
:1000E00081BDF89A000080B5089580E895E20E94ED
:1000F000400080E00E946E000E946600FFCF052E47
:1001000097FB1EF400940E94960057FD07D00E94B2
:100110009E0007FC03D04EF40C9496005095409539
:10012000309521953F4F4F4F5F4F089590958095A3
:10013000709561957F4F8F4F9F4F0895A1E21A2EC2
:10014000AA1BBB1BFD010DC0AA1FBB1FEE1FFF1F7B
:10015000A217B307E407F50720F0A21BB30BE40BCB
:10016000F50B661F771F881F991F1A9469F7609512
:100170007095809590959B01AC01BD01CF010895CC
:04018000F894FFCF21
:00000001FF
