:100000000C9434000C9449000C9449000C94490061
:100010000C9449000C9449000C9449000C9449003C
:100020000C9449000C9449000C9449000C9449002C
:100030000C9449000C9449000C9449000C9449001C
:100040000C9449000C9449000C9449000C9449000C
:100050000C9449000C9449000C9449000C944900FC
:100060000C9449000C94490011241FBECFEFD8E036
:10007000DEBFCDBF11E0A0E0B1E0E6E3F1E002C0F9
:1000800005900D92A630B107D9F70E944B000C9451
:1000900099000C940000CF93DF9300D000D000D0E3
:1000A000CDB7DEB784B1876084B9289829982A989B
:1000B000E4E6F0E08081877F8083E1E8F0E0808102
:1000C0008460808380818D7F808380818160808354
:1000D00086E0E0E0F1E0DE01119601900D928A9554
:1000E000E1F720E030E0E4E8F0E061E070E08081FA
:1000F000918181319742D8F31182108245B1D901A3
:10010000AA0FBB1F81E090E08C0F9D1FA80FB91FA5
:10011000CB010C9002C0880F991F0A94E2F7842744
:1001200085B92F5F3F4F233031050CF320E030E0DD
:06013000DECFF894FFCFC2
:06013600000001000200C0
:00000001FF
