:100000000C9434000C943E000C943E000C943E0082
:100010000C943E000C943E000C943E000C943E0068
:100020000C943E000C943E000C943E000C943E0058
:100030000C943E000C943E000C943E000C943E0048
:100040000C943E000C943E000C943E000C943E0038
:100050000C943E000C943E000C943E000C943E0028
:100060000C943E000C943E0011241FBECFEFD8E04C
:10007000DEBFCDBF0E9440000C94CE000C94000067
:10008000249857982C9A5F9A559A569A579A209A7C
:10009000219A239A20E030E040E050E083B182953D
:1000A0008F70E1F583B182958F708130D9F74F5F02
:1000B0005F4F4230510571F020F44130510541F05D
:1000C0002DC04330510541F04430510539F026C070
:1000D0005D9A24C05E9A22C05F9A20C086E090E0BC
:1000E0005D9A5E9A5F9A2FE332E44FE021503040F0
:1000F0004040E1F700C000005D985E985F982FE3F4
:1001000032E44FE0215030404040E1F700C00000B1
:10011000019731F720E030E040E050E04F99BECF4A
:1001200089B18695869586958130D1F72F5F3F4FAF
:100130002230310571F020F42130310541F0AECF8D
:100140002330310541F02430310539F0A7CF2B9A07
:10015000A5CF299AA3CF289AA1CF86E090E02B9A29
:10016000299A289A2FE332E44FE021503040404052
:10017000E1F700C000002B98299828982FE332E47B
:100180004FE0215030404040E1F700C000000197AF
:1001900031F720E030E040E050E080CFF894FFCF2E
:00000001FF
