:100000000C9434000C943E000C943E000C943E0082
:100010000C943E000C943E000C943E000C943E0068
:100020000C943E000C943E000C943E000C946B002B
:100030000C943E000C943E000C943E000C943E0048
:100040000C943E000C943E000C943E000C943E0038
:100050000C943E000C943E000C943E000C943E0028
:100060000C943E000C943E0011241FBECFEFD8E04C
:10007000DEBFCDBF0E9440000C947E000C940000B7
:10008000209A2898E4E6F0E080818C7F8083789441
:10009000EFE6F0E080818260808380E197E29093D8
:1000A000890080938800E1E8F0E080818F7E808382
:1000B00080818860808380818D7F808380818E7F36
:1000C000808380818460808380818D7F8083808134
:1000D00081608083FFCF1F920F920FB60F92112481
:1000E0008F939F93B19895B181E0892785B99F91AE
:1000F0008F910F900FBE0F901F901895F894FFCF1F
:00000001FF
