S0150000554152542052656365697665722E737265637E
S11300000C9434000C943E000C943E000C943E007E
S11300100C943E000C943E000C943E000C943E0064
S11300200C943E000C943E000C943E000C943E0054
S11300300C943E000C943E000C943E000C943E0044
S11300400C943E000C943E000C947F000C943E00F3
S11300500C943E000C943E000C943E000C943E0024
S11300600C943E000C943E0011241FBECFEFD8E048
S1130070DEBFCDBF0E946E000C94EA000C94000019
S11300809C01E4E6F0E080818D7F8083032E000CE8
S1130090440B550B60E271EA87E090E00E94A900EE
S11300A0DA01C9010197A109B109892F9A2FAB2F50
S11300B0BB27A7FDBA958093C50021502093C400A7
S11300C0E1ECF0E08081886180830895E0ECF0E069
S11300D080818823ECF78091C6000895259A78944E
S11300E0E1ECF0E0808180688083E0ECF0E08081E6
S11300F08068808380E895E20E944000FFCF1F92D1
S11301000F920FB60F9211242F933F934F935F9347
S11301106F937F938F939F93AF93BF93EF93FF93CB
S11301200E946600813621F495B180E2892785B961
S1130130FF91EF91BF91AF919F918F917F916F91BB
S11301405F914F913F912F910F900FBE0F901F9091
S11301501895052E97FB1EF400940E94C00057FDCD
S113016007D00E94C80007FC03D04EF40C94C000D2
S113017050954095309521953F4F4F4F5F4F0895CF
S113018090958095709561957F4F8F4F9F4F0895FF
S1130190A1E21A2EAA1BBB1BFD010DC0AA1FBB1F87
S11301A0EE1FFF1FA217B307E407F50720F0A21BF9
S11301B0B30BE40BF50B661F771F881F991F1A9466
S11301C069F760957095809590959B01AC01BD0190
S10B01D0CF010895F894FFCF5C
S9030000FC
