:100000000C9434000C9449000C9449000C94490061
:100010000C9449000C9449000C9449000C9449003C
:100020000C9449000C9449000C9449000C9449002C
:100030000C9449000C9449000C9449000C9449001C
:100040000C9449000C9449000C9449000C9449000C
:100050000C9449000C9449000C9449000C944900FC
:100060000C9449000C94490011241FBECFEFD8E036
:10007000DEBFCDBF11E0A0E0B1E0ECEAF3E002C0EA
:1000800005900D92A231B107D9F70E948A010C9414
:10009000D4010C9400002A9A81E28A95F1F70000BD
:1000A0002A9889EF90E00197F1F700C000000895C9
:1000B000982F907F9BB92898299891E29A95F1F70B
:1000C00000002A9A93E09A95F1F700002A9890E1AF
:1000D0009A95F1F700C08295807F8BB981E28A956D
:1000E000F1F700000E944B000895982F907F9BB974
:1000F000289A299891E29A95F1F700002A9A93E0BC
:100100009A95F1F700002A9890E19A95F1F700C0CE
:100110008295807F8BB981E28A95F1F700000E9479
:100120004B000895CF93DF93EC018881882351F031
:1001300021960E94750080E18A95F1F700C08991AF
:100140008111F7CFDF91CF910895EF92FF920F9336
:100150001F93CF93DF93CDB7DEB72A970FB6F894EE
:10016000DEBF0FBECDBF0097D9F19E012F5F3F4F7D
:100170008901E0E0F0E00F2EFAE0EF2EF12CF02DF7
:1001800001C0FA01B7010E94AC01805DD8018D93D6
:100190008D01862F972FAF014F5F5F4F009789F733
:1001A000DE01A40FB51F11961C921E161F069CF4AB
:1001B000BF01EC0FFD1F329680E090E0D9014C9119
:1001C00052915D939D0140830196AB01481B590BF1
:1001D000841795079CF3CE0101960E94920002C0FD
:1001E0001982F9CF2A960FB6F894DEBF0FBECDBFA5
:1001F000DF91CF911F910F91FF90EF9008950F9392
:100200001F93CF93DF93EC018B0182E00E94580093
:1002100083ED90E30197F1F700C00000209769F5A6
:100220001016110664F5C1E0D0E084E10E94580088
:1002300091E29A95F1F7000021960C171D07ACF793
:100240001EC0C8E2D0E084E10E94580081E28A9595
:10025000F1F700002197B9F71016110684F4C1E0F8
:10026000D0E084E10E94580091E29A95F1F70000F5
:1002700021960C171D07ACF702C0219711F3DF91EF
:10028000CF911F910F91089584B1876084B987EA57
:1002900091E60197F1F700C000008AB1806F8AB93A
:1002A00087EA91E60197F1F700C0000081E00E9423
:1002B000580083ED90E30197F1F700C0000082E061
:1002C0000E94580083ED90E30197F1F700C0000011
:1002D00088E20E94580091E29A95F1F700008CE0C4
:1002E0000E94580081E28A95F1F70000089581E0AC
:1002F0000E94580083ED90E30197F1F700C00000E1
:1003000082E00E94580083ED90E30197F1F700C06E
:10031000000008950E94440180E091E00E94920054
:10032000C0E0D0E00E9477018AE091E00E94920054
:1003300060E070E081E090E00E94FF00CE010E944A
:10034000A5002FEF88E09DE3215080409040E1F729
:1003500000C000002196E6CF97FB072E16F400940C
:1003600007D077FD09D00E94C00107FC05D03EF4FC
:10037000909581959F4F0895709561957F4F089551
:10038000AA1BBB1B51E107C0AA1FBB1FA617B707BB
:1003900010F0A61BB70B881F991F5A95A9F78095D7
:0C03A0009095BC01CD010895F894FFCFAA
:1003AC004869205275746872610057454C434F4D33
:0203BC004500FA
:00000001FF
