S01A00005541525420636F6D6D756E69636174696F6E2E7372656338
S11300000C9434000C9449000C9449000C9449005D
S11300100C9449000C9449000C9449000C94490038
S11300200C9449000C9449000C9449000C94490028
S11300300C9449000C9449000C9449000C94490018
S11300400C9449000C9449000C9449000C94490008
S11300500C9449000C9449000C9449000C944900F8
S11300600C9449000C94490011241FBECFEFD8E032
S1130070DEBFCDBF11E0A0E0B1E0E0ECF1E002C0F2
S113008005900D92A430B107D9F70E9488000C9412
S1130090DE000C9400009C01E4E6F0E080818D7F9A
S11300A08083032E000C440B550B60E472E48FE054
S11300B090E00E949D00DA01C9010197A109B109EC
S11300C0892F9A2FAB2FBB27A7FDBA958093C50024
S11300D021502093C400E1ECF0E0808188618083AA
S11300E00895E0ECF0E0908195FFFDCF8093C60089
S11300F00895CF93DF93EC018881882331F0219612
S11301000E94710089918111FBCFDF91CF910895F5
S113011080E895E20E944B0080E091E00E94790023
S113012024E531E882EF97E0215030408040904050
S1130130D9F700C000C00000EFCF052E97FB1EF4D6
S113014000940E94B40057FD07D00E94BC0007FC35
S113015003D04EF40C94B4005095409530952195FD
S11301603F4F4F4F5F4F08959095809570956195DF
S11301707F4F8F4F9F4F0895A1E21A2EAA1BBB1BDE
S1130180FD010DC0AA1FBB1FEE1FFF1FA217B3075F
S1130190E407F50720F0A21BB30BE40BF50B661F75
S11301A0771F881F991F1A9469F760957095809539
S11301B090959B01AC01BD01CF010895F894FFCF48
S10701C04869000086
S9030000FC
