S011000049324320536C6176652E737265633A
S11300000C9434000C943E000C943E000C943E007E
S11300100C943E000C943E000C943E000C943E0064
S11300200C943E000C943E000C943E000C943E0054
S11300300C943E000C943E000C943E000C943E0044
S11300400C943E000C943E000C943E000C943E0034
S11300500C943E000C943E000C943E000C943E0024
S11300600C943E000C943E0011241FBECFEFD8E048
S1130070DEBFCDBF0E946E000C9413010C940000EF
S11300809C01E4E6F0E080818D7F8083032E000CE8
S1130090440B550B60E271EA87E090E00E94D200C5
S11300A0DA01C9010197A109B109892F9A2FAB2F50
S11300B0BB27A7FDBA958093C50021502093C400A7
S11300C0E1ECF0E08081886180830895E0ECF0E069
S11300D0908195FFFDCF8093C6000895CF93DF9361
S11300E01F92CDB7DEB780E895E20E944000529A95
S11300F0EAEBF0E0808181608083ECEBF0E08081CA
S11301008464808380818F7C80830CEB10E00F2ECD
S1130110F9EBCF2ED12CF02D0F2EFBEBEF2EF12C83
S1130120F02D6894BB24B2F8F8018081F601808137
S1130130887F803751F4F80180818F7780838081B4
S11301408F7E80838081806C8083F6018081887FAC
S11301508039A9F4F80180818F778083F701808149
S11301608983F80180818F7E80838081806C808385
S11301708BB18B258BB989810E9466001982F601A7
S11301808081887F803A81F6F80180818F7780832F
S113019080818064808380818F7C8083808180687B
S11301A08083C2CF052E97FB1EF400940E94E900C1
S11301B057FD07D00E94F10007FC03D04EF40C94C5
S11301C0E90050954095309521953F4F4F4F5F4F33
S11301D0089590958095709561957F4F8F4F9F4FAF
S11301E00895A1E21A2EAA1BBB1BFD010DC0AA1F74
S11301F0BB1FEE1FFF1FA217B307E407F50720F08C
S1130200A21BB30BE40BF50B661F771F881F991F06
S11302101A9469F760957095809590959B01AC014F
S10D0220BD01CF010895F894FFCF4B
S9030000FC
