:100000000C9434000C9449000C9449000C94490061
:100010000C9449000C9449000C9449000C9449003C
:100020000C9449000C9449000C9449000C9449002C
:100030000C9449000C9449000C9449000C9449001C
:100040000C9449000C9449000C9449000C9449000C
:100050000C9449000C9449000C9449000C944900FC
:100060000C9449000C94490011241FBECFEFD8E036
:10007000DEBFCDBF11E0A0E0B1E0E2E6F1E002C0FA
:1000800005900D92A83FB107D9F70E9496000C94F5
:10009000AF000C9400008093BB0084E88093BC0008
:1000A000ECEBF0E080818823ECF78091B9000895B3
:1000B0000F931F93CF93DF931F92CDB7DEB78C01C1
:1000C00019828981F801E80FF11D8081882389F068
:1000D0008981F801E80FF11D80810E944B00898120
:1000E0008F5F89838981F801E80FF11D808181117B
:1000F000EFCF0F90DF91CF911F910F91089594EA68
:100100009093BC00ECEBF0E090819923ECF7909198
:10011000B9008093BB0084E88093BC00ECEBF0E076
:1001200080818823ECF78091B900089580E00E94D7
:100130007F0080E091E00E9458008AE00E944B001E
:1001400083E591E00E9458008AE00E944B0084EA17
:1001500091E00E94580084E98093BC00FFCFF8949E
:02016000FFCFCF
:10016200546865736520313820456E676C69736821
:100172002073686F72742073746F72696573206183
:10018200726520656173792C20656E676167696E9F
:100192006720616E642077696C6C206D616B6520ED
:1001A200796F75207468696E6B2068617264202EA5
:1001B2002E2E0054686573652077696C6C206E6F13
:1001C20074206F6E6C7920696D70726F766520791C
:1001D2006F757220456E676C697368207265616421
:1001E200696E6720636F6D70726568656E73696FA3
:1001F2006E2062757420616C736F206F70656E2063
:100202002E2E2E0020286E6F726D616C2920746F65
:100212006E6520617320686520646973637573730A
:100222006573207468652064657461696C73206FFE
:10023200662074686520636F7069657220616E6400
:10024200206F6666696365207265667269676572AA
:0802520061746F722E2E2E0064
:00000001FF
